:100000000C942A000C9447000C9447000C94470071
:100010000C9447000C9447000C9447000C94470044
:100020000C9447000C9447000C9447000C94470034
:100030000C9447000C9447000C9447000C94470024
:100040000C9447000C9447000C9447000C94470014
:100050000C94470011241FBECFE5D4E0DEBFCDBF16
:1000600010E0A0E6B0E0ECE6F6E002C005900D92EC
:10007000A43CB107D9F710E0A4ECB0E001C01D9298
:10008000A83CB107E1F70E9449000C9434030C949A
:100090000000BF92CF92DF92EF92FF920F931F93D7
:1000A000DF93CF9300D000D0CDB7DEB70E946D02B2
:1000B0008FE7D82E00E0EE2410E00DC00E94DC0295
:1000C0008F3739F09FE7D91621F4D82EF82E01E0AA
:1000D00001C0D82EEE24133009F445C1143028F4A1
:1000E000113001F11230B0F50DC0153009F408C11E
:1000F000153008F4F6C0163009F411C1173009F0B4
:1001000076C154C10E94B80280E690E00E94A90224
:1001100082E061E00E94BF028EE690E00E94A902A8
:1001200011E065C1002309F462C183E4F81639F4D3
:100130000E94B8028CE790E00E94A90214E08F2D83
:100140008153883010F000E052C10E94B80200E0F4
:1001500012E04DC119821A821B821C82B8C00E9413
:100160003203813311F40E94B80289819A81AB81F4
:10017000BC810097A105B105C1F089819A81AB814D
:10018000BC810497A105B10581F089819A81AB8179
:10019000BC810897A105B10541F089819A81AB81A5
:1001A000BC810C97A105B10541F481E890E00E9463
:1001B000A9028F2D0E949F0277C089819A81AB810D
:1001C000BC810197A105B105C1F089819A81AB81FC
:1001D000BC810597A105B10581F089819A81AB8128
:1001E000BC810997A105B10541F089819A81AB8154
:1001F000BC810D97A105B10551F481E890E00E9402
:10020000A9028F2D0E949F0289E890E04BC089814E
:100210009A81AB81BC810297A105B105C1F08981AA
:100220009A81AB81BC810697A105B10581F08981D6
:100230009A81AB81BC810A97A105B10541F0898102
:100240009A81AB81BC810E97A105B10551F481E87B
:1002500090E00E94A9028F2D0E949F028BE890E0FF
:1002600021C089819A81AB81BC810397A105B10529
:1002700081F089819A81AB81BC810797A105B10585
:1002800041F089819A81AB81BC810B97A105B105B1
:1002900099F481E890E00E94A9028F2D0E949F02AC
:1002A0008EE890E00E94A90260E970ED83E090E0A2
:1002B0000E94FD010E94B80289819A81AB81BC81B4
:1002C0000196A11DB11D89839A83AB83BC8389816B
:1002D0009A81AB81BC810F97A105B10508F43FCF8E
:1002E00085C0002309F483C08F2D80538A3008F025
:1002F0007CC08AE20E949F02CF2C00E015E077C00C
:10030000002309F474C08F2D80538A3008F06DC02B
:100310008AE20E949F02BF2C00E016E068C0002322
:1003200009F465C08F2D80538A3008F05EC08AE2E0
:100330000E949F020E94B80291E3C91669F482E309
:10034000B81651F493E3F91639F482E990E00E946B
:10035000A90200E013E04BC08BE990E00E94A902E3
:1003600000E017E044C088EA90E00E94A90260E93A
:1003700070ED83E090E00E94FD0160E970ED83E0A4
:1003800090E00E94FD0160E970ED83E090E00E9442
:10039000FD0160E970ED83E090E00E94FD0160E9FD
:1003A00070ED83E090E00E94FD0120C019821A8266
:1003B0001B821C8211C060E970ED83E090E00E9416
:1003C000FD0189819A81AB81BC810196A11DB11D7E
:1003D00089839A83AB83BC8389819A81AB81BC81F9
:1003E0000597A105B10538F301C000E010E0E394E2
:1003F00084E6E81609F06FCE61CE9B01AC01109245
:10040000C4001092C5001092C6001092C70013C01D
:100410008091C4009091C500A091C600B091C70022
:100420000196A11DB11D8093C4009093C500A093B7
:10043000C600B093C7008091C4009091C500A09100
:10044000C600B091C70082179307A407B50700F351
:10045000089511BA882311F4C59801C0C59AC69AA7
:100460000000C79A0000000000000000000080B3F8
:10047000C79800009FEF91BB0895882311F4C59899
:1004800001C0C59AC69862BB0000C79A0000000070
:10049000000000000000C7980000089580E00E945E
:1004A000290287FDFBCF08950E944E0280E06CE395
:1004B0000E943D020E944E0280E066E00E943D02E2
:1004C0000E944E0280E06FE00E943D020E944E02B8
:1004D00080E061E00E943D0208951BBA18BA81EEE7
:1004E00087BB8FEF81BB1092C4001092C5001092A1
:1004F000C6001092C70013C08091C4009091C5003F
:10050000A091C600B091C7000196A11DB11D8093B6
:10051000C4009093C500A093C600B093C70080911B
:10052000C4009091C500A091C600B091C700805C46
:10053000944DA140B04000F30E94540208951F93CF
:10054000182F0E944E0281E0612F0E943D021F91F0
:100550000895CF93DF93EC010E944E0203C02196D1
:100560000E949F0288818823D1F7DF91CF9108955F
:100570000E944E0280E061E00E943D0208950F93C8
:100580001F93082F162F0E944E02802F8150823019
:1005900080F4612F6150603160F4802F90E001960B
:1005A00026E0880F991F2A95E1F7680F80E00E94E6
:1005B0003D021F910F910895DF93CF93CDB7DEB722
:1005C00061970FB6F894DEBF0FBECDBF80E10CC0BF
:1005D00000000000000000000000000029B320958A
:1005E0002F7041F48AB3880F8ABB8AB3882381F7BE
:1005F0008FE72FC08AB3803161F0803211F491E02F
:1006000009C0803411F492E005C0803811F493E001
:1006100001C090E020FD0CC021FF02C021E009C014
:1006200022FF02C022E005C023FF02C023E001C078
:1006300020E0DE011196E2EBF0E081E101900D9205
:100640008150E1F7990F990F920FFE01E90FF11D0B
:10065000818161960FB6F894DEBF0FBECDBFCF91FA
:0C066000DF91089586B30895F894FFCF51
:10066C0053756E61206C6120312E2E382C00432086
:10067C0070656E74727520636F643A00436F643DED
:10068C000053756E206C6120002E002E2E002E2E35
:10069C002E00446573636869732100436F6420699D
:1006AC006E76616C69642100446573636869737369
:1006BC0021003132334134353642373839432A3010
:0406CC0023440000C3
:00000001FF
