:100000000C942A000C9447000C9447000C94470071
:100010000C9447000C9447000C9447000C94470044
:100020000C9447000C9447000C9447000C94470034
:100030000C9447000C9447000C9447000C94470024
:100040000C9447000C9447000C9447000C94470014
:100050000C94470011241FBECFE5D4E0DEBFCDBF16
:1000600010E0A0E6B0E0EEEFF3E002C005900D92E4
:10007000A238B107D9F710E0A2E8B0E001C01D92A4
:10008000A638B107E1F70E94BB010C94FD010C9466
:100090000000DF93CF9300D000D0CDB7DEB76983E7
:1000A0007A838B839C83109282001092830010923B
:1000B00084001092850013C080918200909183008B
:1000C000A0918400B09185000196A11DB11D80937F
:1000D000820090938300A0938400B09385002091C8
:1000E0008200309183004091840050918500898185
:1000F0009A81AB81BC81281739074A075B07E0F278
:100100000F900F900F900F90CF91DF910895DF9394
:10011000CF9300D0CDB7DEB78A83E1E3F0E0108261
:100120008A81882341F4A8E3B0E0E8E3F0E080812D
:100130008F7D8C9307C0A8E3B0E0E8E3F0E0808116
:1001400080628C93A8E3B0E0E8E3F0E08081806413
:100150008C930000A8E3B0E0E8E3F0E080818068E1
:100160008C9300000000000000000000E0E3F0E0DD
:1001700080818983A8E3B0E0E8E3F0E080818F77B5
:100180008C930000E1E3F0E08FEF808389810F9092
:100190000F90CF91DF910895DF93CF9300D0CDB72B
:1001A000DEB789836A838981882341F4A8E3B0E0BC
:1001B000E8E3F0E080818F7D8C9307C0A8E3B0E096
:1001C000E8E3F0E0808180628C93A8E3B0E0E8E3AC
:1001D000F0E080818F7B8C93E2E3F0E08A81808382
:1001E0000000A8E3B0E0E8E3F0E0808180688C9351
:1001F00000000000000000000000A8E3B0E0E8E319
:10020000F0E080818F778C9300000F900F90CF915A
:10021000DF910895DF93CF93CDB7DEB780E00E94E2
:1002200087008823DCF3CF91DF910895DF93CF938C
:10023000CDB7DEB70E940A0180E06CE30E94CC00DB
:100240000E940A0180E066E00E94CC000E940A0140
:1002500080E06FE00E94CC000E940A0180E061E033
:100260000E94CC00CF91DF910895DF93CF93CDB75B
:10027000DEB7E8E3F0E01082E7E3F0E080EE8083B1
:10028000E1E3F0E08FEF808360EC74ED81E090E0DB
:100290000E9449000E941601CF91DF910895DF93DB
:1002A000CF930F92CDB7DEB789830E940A0181E018
:1002B00069810E94CC000F90CF91DF910895DF9368
:1002C000CF9300D0CDB7DEB79A8389830E940A010D
:1002D0000BC0E981FA81208189819A8101969A83F4
:1002E0008983822F0E944F01E981FA8180818823CE
:1002F00081F70F900F90CF91DF910895DF93CF9307
:10030000CDB7DEB70E940A0180E061E00E94CC0018
:10031000CF91DF910895DF93CF9300D0CDB7DEB7B3
:1003200089836A830E940A018981813019F0898159
:100330008230E1F48A818131C8F48A818823B1F066
:100340008981882F90E001960024969587950794DF
:10035000969587950794982F802D982F8A81890FDD
:10036000982F915080E0692F0E94CC000F900F9041
:10037000CF91DF910895DF93CF930F92CDB7DEB782
:100380000E94350180E690E00E945F0182E061E01A
:100390000E948B0181E790E00E945F0180E18983E8
:1003A0000DC082E069810E948B0160E970ED83E0FD
:1003B00090E00E9449008981815089838981882346
:1003C00081F780E189830DC081E069810E948B0102
:1003D00060E970ED83E090E00E94490089818150DE
:1003E00089838981882381F70E947E0160E970ED0D
:0E03F00083E090E00E944900C5CFF894FFCF53
:1003FE00303132333435363738396162636465668D
:10040E00006768696A6B6C6D6E6F7071727374756C
:02041E00760066
:00000001FF
