:100000000C942A000C9447000C9447000C94470071
:100010000C9447000C9447000C9447000C94470044
:100020000C9447000C9447000C9447000C94470034
:100030000C9447000C9447000C9447000C94470024
:100040000C9447000C9447000C9447000C94470014
:100050000C94470011241FBECFE5D4E0DEBFCDBF16
:1000600010E0A0E6B0E0E8E7F4E002C005900D92F1
:10007000A837B107D9F710E0A8E7B0E001C01D929A
:10008000AD37B107E1F70E9449000C943A020C9495
:1000900000009F92AF92BF92CF92DF92EF92FF92B9
:1000A0000F931F93DF93CF930F92CDB7DEB718BA9C
:1000B00080EE87BB11BA0E9450018EE085BD89EFAA
:1000C00083BD0E9469019FE7AA24EE24FF248701D3
:1000D0003EE1D32E27E1B22E8AE0C82E05C0EE24E1
:1000E000FF248701A394992D88ECA81669F49983BD
:1000F0000E94D801982E99819F3721F4EFE78E173F
:1001000009F06EC0992DAA24992E08B607FEEACFF1
:1001100088B7806888BF0894E11CF11C011D111D7F
:10012000FDE7EF16F10401051105E1F6D3948CE328
:10013000D81679F4B394B81611F0DD240AC0C3942C
:10014000E8E1CE1621F4DD24BB24CC2402C0DD245A
:10015000BB2481E061E00E94BB01F9E0FC1568F47A
:100160008C2D6AE00E942E02805D0E949B018C2DE6
:100170006AE00E942E02892F04C08CE20E949B013B
:100180008C2D805D0E949B018AE30E949B018B2D38
:100190006AE00E942E02805D0E949B018B2D6AE026
:1001A0000E942E02892F805D0E949B018AE30E949B
:1001B0009B018D2D6AE00E942E02805D0E949B01B2
:1001C0008D2D6AE00E942E02892F805D0E949B0186
:1001D00008B600FE84CF80E690E00E94A501FFCF24
:1001E00081E061E00E94BB01892D0E949B01AA244D
:1001F0008CCF9B01AC011092790010927A00109282
:100200007B0010927C0013C08091790090917A005D
:10021000A0917B00B0917C000196A11DB11D80933F
:10022000790090937A00A0937B00B0937C0080913A
:10023000790090917A00A0917B00B0917C008217A8
:100240009307A407B50700F3089511BA882311F4A2
:10025000C59801C0C59AC69A0000C79A0000000060
:1002600000000000000080B3C79800009FEF91BB22
:100270000895882311F4C59801C0C59AC69862BB39
:100280000000C79A00000000000000000000C798AE
:100290000000089580E00E94250187FDFBCF0895AE
:1002A0000E944A0180E06CE30E9439010E944A01E9
:1002B00080E066E00E9439010E944A0180E06FE020
:1002C0000E9439010E944A0180E061E00E943901E8
:1002D00008951BBA18BA80EE87BB8FEF81BB1092CE
:1002E000790010927A0010927B0010927C0013C06B
:1002F0008091790090917A00A0917B00B0917C0070
:100300000196A11DB11D8093790090937A00A0936E
:100310007B00B0937C008091790090917A00A0914D
:100320007B00B0917C00805C944DA140B04000F314
:100330000E94500108951F93182F0E944A0181E0E6
:10034000612F0E9439011F910895CF93DF93EC0133
:100350000E944A0103C021960E949B018881882344
:10036000D1F7DF91CF9108950E944A0180E061E0CA
:100370000E94390108950F931F93082F162F0E9492
:100380004A01802F8150823080F4612F61506031AA
:1003900060F4802F90E0019626E0880F991F2A953F
:1003A000E1F7680F80E00E9439011F910F910895D5
:1003B000DF93CF93CDB7DEB761970FB6F894DEBF6A
:1003C0000FBECDBF80E10CC00000000000000000A7
:1003D0000000000029B320952F7041F48AB3880FE4
:1003E0008ABB8AB3882381F78FE72FC08AB3803115
:1003F00061F0803211F491E009C0803411F492E090
:1004000005C0803811F493E001C090E020FD0CC0DD
:1004100021FF02C021E009C022FF02C022E005C086
:1004200023FF02C023E001C020E0DE011196E7E6D1
:10043000F0E081E101900D928150E1F7990F990F61
:10044000920FFE01E90FF11D818161960FB6F894BC
:10045000DEBF0FBECDBFCF91DF910895991B79E02C
:1004600004C0991F961708F0961B881F7A95C9F744
:0804700080950895F894FFCF78
:100478004772657369740031323341343536423717
:080488003839432A30234400F7
:00000001FF
