:100000000C942A000C9447000C9447000C94470071
:100010000C9447000C9447000C9447000C94470044
:100020000C9447000C9447000C9447000C94470034
:100030000C9447000C9447000C9447000C94470024
:100040000C9447000C9447000C9447000C94470014
:100050000C94470011241FBECFE5D4E0DEBFCDBF16
:1000600010E0A0E6B0E0E2E3F3E002C005900D92FC
:10007000A237B107D9F710E0A2E7B0E001C01D92A6
:10008000A737B107E1F70E9449000C9497010C943F
:1000900000000F931F930E94D2000FE780E0883C7E
:1000A00049F40E944101182F0F3711F48F3731F4B2
:1000B000012F80E0102F8F5F012FF1CF0E940401EC
:1000C00080E0F9CF9B01AC01109273001092740094
:1000D000109275001092760013C080917300909179
:1000E0007400A0917500B09176000196A11DB11D1C
:1000F0008093730090937400A0937500B093760082
:100100008091730090917400A0917500B091760079
:1001100082179307A407B50700F3089511BA88233F
:1001200011F4C59801C0C59AC69A0000C79A00008C
:10013000000000000000000080B3C79800009FEF9F
:1001400091BB0895882311F4C59801C0C59AC6983B
:1001500062BB0000C79A0000000000000000000021
:10016000C7980000089580E00E948E0087FDFBCFB5
:1001700008950E94B30080E06CE30E94A2000E94F8
:10018000B30080E066E00E94A2000E94B30080E01D
:100190006FE00E94A2000E94B30080E061E00E9434
:1001A000A20008951BBA18BA80EE87BB8FEF81BBFF
:1001B00010927300109274001092750010927600E5
:1001C00013C08091730090917400A0917500B0915C
:1001D00076000196A11DB11D809373009093740069
:1001E000A0937500B0937600809173009091740095
:1001F000A0917500B0917600805C944DA140B04014
:1002000000F30E94B90008951F93182F0E94B300B5
:1002100081E0612F0E94A2001F910895CF93DF9388
:10022000EC010E94B30003C021960E940401888162
:100230008823D1F7DF91CF9108950E94B30080E029
:1002400061E00E94A20008950F931F93082F162FBC
:100250000E94B300802F8150823080F4612F615062
:10026000603160F4802F90E0019626E0880F991F9E
:100270002A95E1F7680F80E00E94A2001F910F917C
:100280000895DF93CF93CDB7DEB761970FB6F8949B
:10029000DEBF0FBECDBF80E10CC00000000000003B
:1002A00000000000000029B320952F7041F48AB3AC
:1002B000880F8ABB8AB3882381F78FE72FC08AB360
:1002C000803161F0803211F491E009C0803411F482
:1002D00092E005C0803811F493E001C090E020FD69
:1002E0000CC021FF02C021E009C022FF02C022E0B1
:1002F00005C023FF02C023E001C020E0DE0111960B
:10030000E0E6F0E081E101900D928150E1F7990F74
:10031000990F920FFE01E90FF11D818161960FB6D1
:10032000F894DEBF0FBECDBFCF91DF910895F89452
:02033000FFCFFD
:100332003132334134353642373839432A30234457
:020342000000B9
:00000001FF
