:100000000C942A000C9447000C9447000C9449006F
:100010000C9447000C9447000C9447000C94470044
:100020000C9447000C9447000C9447000C94470034
:100030000C9447000C9447000C9447000C94470024
:100040000C9447000C9447000C9447000C94470014
:100050000C94470011241FBECFE5D4E0DEBFCDBF16
:1000600010E0A0E6B0E0E4E3F5E002C005900D92F8
:10007000A238B107D9F710E0A2E8B0E001C01D92A4
:10008000AB38B107E1F70E94F4000C9498020C948D
:1000900000001F920F920FB60F9211242F933F93DF
:1000A0004F935F936F937F938F939F93AF93BF9380
:1000B000EF93FF938091820090918300A091840040
:1000C000B09185000196A11DB11D8093820090938F
:1000D0008300A0938400B09385008D379105A1051E
:1000E000B10509F070C01092820010928300109246
:1000F000840010928500809170008F5F8093700063
:100100008C33A1F41092700080916F008F5F809308
:100110006F008C3359F410926F0080916E008F5FE6
:1001200080936E00883111F410926E0082E061E0DD
:100130000E94190280916E008A3068F06AE00E9485
:100140008C02805D0E94F90180916E006AE00E943D
:100150008C02892F05C08CE20E94F90180916E000B
:10016000805D0E94F9018AE30E94F90180916F008D
:100170006AE00E948C02805D0E94F90180916F000C
:100180006AE00E948C02892F805D0E94F9018AE357
:100190000E94F901809170006AE00E948C02805DEB
:1001A0000E94F901809170006AE00E948C02892F00
:1001B000805D0E94F90108B600FE05C080E690E06F
:1001C0000E940302FFCFFF91EF91BF91AF919F91EA
:1001D0008F917F916F915F914F913F912F910F90F0
:1001E0000FBE0F901F901895AF92BF92CF92DF92E3
:1001F000FF920F931F93DF93CF9300D000D00F9205
:10020000CDB7DEB70E94C7010E94AE018EE085BD6A
:1002100089EF83BD89B7806889BF8FB780688FBF3A
:100220001FE780E06E010894C11CD11C97E0A92E45
:10023000B12CAC0EBD1E883C51F40E943602F82E43
:100240001F3719F48FE7F816C9F41F2D80E0F12E3F
:1002500012C0F80181918F010E94F90168EA71E6EC
:1002600080E090E00E9457010A151B0591F78F2D41
:100270000E94F90180E08F5F1F2DDDCF81E061E0FA
:100280000E94190281E061E00E94190280E20E944E
:10029000F90181E061E00E941902D601E7E6F0E091
:1002A00085E001900D928150E1F78601D2CF9B014C
:1002B000AC01109287001092880010928900109271
:1002C0008A0013C08091870090918800A0918900D6
:1002D000B0918A000196A11DB11D80938700909373
:1002E0008800A0938900B0938A0080918700909144
:1002F0008800A0918900B0918A0082179307A40713
:10030000B50700F3089511BA882311F4C59801C008
:10031000C59AC69A0000C79A0000000000000000BD
:10032000000080B3C79800009FEF91BB0895882319
:1003300011F4C59801C0C59AC69862BB0000C79A5F
:1003400000000000000000000000C79800000895B1
:1003500080E00E94830187FDFBCF08950E94A801E1
:1003600080E06CE30E9497010E94A80180E066E0B3
:100370000E9497010E94A80180E06FE00E9497010F
:100380000E94A80180E061E00E94970108951BBAD5
:1003900018BA80EE87BB8FEF81BB10928700109256
:1003A00088001092890010928A0013C08091870003
:1003B00090918800A0918900B0918A000196A11DBA
:1003C000B11D8093870090938800A0938900B0931B
:1003D0008A008091870090918800A0918900B09157
:1003E0008A00805C944DA140B04000F30E94AE01B1
:1003F00008951F93182F0E94A80181E0612F0E9489
:1004000097011F910895CF93DF93EC010E94A801FB
:1004100003C021960E94F90188818823D1F7DF91DA
:10042000CF9108950E94A80180E061E00E949701A9
:1004300008950F931F93082F162F0E94A801802F55
:100440008150823080F4612F6150603160F4802FE0
:1004500090E0019626E0880F991F2A95E1F7680F32
:1004600080E00E9497011F910F910895DF93CF9331
:10047000CDB7DEB761970FB6F894DEBF0FBECDBF24
:1004800080E10CC00000000000000000000000003F
:1004900029B320952F7041F48AB3880F8ABB8AB3A1
:1004A000882381F78FE72FC08AB3803161F08032D3
:1004B00011F491E009C0803411F492E005C0803855
:1004C00011F493E001C090E020FD0CC021FF02C0B8
:1004D00021E009C022FF02C022E005C023FF02C0C4
:1004E00023E001C020E0DE011196E1E7F0E081E1C8
:1004F00001900D928150E1F7990F990F920FFE0133
:10050000E90FF11D818161960FB6F894DEBF0FBE31
:10051000CDBFCF91DF910895991B79E004C0991F59
:10052000961708F0961B881F7A95C9F7809508954D
:04053000F894FFCF6D
:1005340047726573697400546173746120000B0D14
:100544000F3132334134353642373839432A302378
:02055400440061
:00000001FF
