:100000000C942A000C9434000C9434000C943400AA
:100010000C9434000C9434000C9434000C94340090
:100020000C9434000C9434000C9434000C94340080
:100030000C9434000C9434000C9434000C94340070
:100040000C9434000C9434000C9434000C94340060
:100050000C94340011241FBECFE5D4E0DEBFCDBF29
:100060000E9436000C9482000C940000DF93CF9322
:1000700000D000D000D0CDB7DEB7EAE3F0E08FEFDC
:100080008083E7E3F0E01082E6E3F0E080818E8396
:100090008E8187708E838E8181708B838E81869511
:1000A00081708C838E818695869581708D831A826E
:1000B0009B818C8198278D81892789838981882FCD
:1000C00090E081709070882319F08A8181608A8322
:1000D0008E81833018F48A8182608A838E81823097
:1000E00049F08E81833031F08E81853019F08E8118
:1000F000873019F48A8184608A83EBE3F0E08A8197
:080100008083C2CFF894FFCF09
:00000001FF
