:100000000C942A000C9434000C9434000C943400AA
:100010000C9434000C9434000C9434000C94340090
:100020000C9434000C9434000C9434000C94340080
:100030000C9434000C9434000C9434000C94340070
:100040000C9434000C9434000C9434000C94340060
:100050000C94340011241FBECFE5D4E0DEBFCDBF29
:100060000E9436000C9468000C9400008FEF8ABB4D
:1000700017BAF4E2ECE470E26EE75FE04FE432E1DD
:1000800021E096E086B387708330B1F0843028F4A5
:10009000813071F0823070F409C0853089F085308C
:1000A00068F0863079F0873089F40EC02BBBEACF38
:1000B0004BBBE8CF3BBBE6CF9BBBE4CFEBBBE2CF78
:1000C000FBBBE0CF7BBBDECF5BBBDCCF6BBBDACF58
:0400D000F894FFCFD2
:00000001FF
