:100000000C942A000C9434000C9434000C943400AA
:100010000C9434000C9434000C9434000C94340090
:100020000C9434000C9434000C9434000C94340080
:100030000C9434000C9434000C9434000C94340070
:100040000C9434000C9434000C9434000C94340060
:100050000C94340011241FBECFE5D4E0DEBFCDBF29
:100060000E9436000C946F000C940000DF93CF9335
:1000700000D000D0CDB7DEB78FEF8ABB19821A82CD
:100080001B821C8221E089819A81AB81BC8100970F
:10009000A105B10509F42BBB89819A81AB81BC8193
:1000A0008D379105A105B10509F41BBA89819A81A3
:1000B000AB81BC810196A11DB11D89839A83AB835D
:1000C000BC8389819A81AB81BC81825E9440A040CF
:1000D000B040C9F619821A821B821C82D4CFF894D0
:0200E000FFCF50
:00000001FF
