:100000000C942A000C943C000C943C000C943C0092
:100010000C943C000C943C000C943C000C943C0070
:100020000C943C000C943C000C943C000C943C0060
:100030000C943C000C943C000C943C000C943C0050
:100040000C943C000C943C000C943C000C943C0040
:100050000C943C0011241FBECFE5D4E0DEBFCDBF21
:1000600010E0A0E6B0E001C01D92A436B107E1F7B0
:100070000E9444010C944B010C940000DF93CF9339
:1000800000D000D0CDB7DEB769837A838B839C83A1
:100090001092600010926100109262001092630052
:1000A00013C08091600090916100A0916200B091B6
:1000B00063000196A11DB11D8093600090936100C3
:1000C000A0936200B09363002091600030916100C2
:1000D000409162005091630089819A81AB81BC811B
:1000E000281739074A075B07E0F20F900F900F902F
:1000F0000F90CF91DF910895DF93CF9300D0CDB7CC
:10010000DEB78A83E1E3F0E010828A81882341F43C
:10011000A8E3B0E0E8E3F0E080818F7D8C9307C036
:10012000A8E3B0E0E8E3F0E0808180628C93A8E38C
:10013000B0E0E8E3F0E0808180648C930000A8E305
:10014000B0E0E8E3F0E0808180688C93000000007C
:10015000000000000000E0E3F0E080818983A8E374
:10016000B0E0E8E3F0E080818F778C930000E1E37A
:10017000F0E08FEF808389810F900F90CF91DF9116
:100180000895DF93CF9300D0CDB7DEB789836A831C
:100190008981882341F4A8E3B0E0E8E3F0E08081BE
:1001A0008F7D8C9307C0A8E3B0E0E8E3F0E08081A6
:1001B00080628C93A8E3B0E0E8E3F0E080818F7B7D
:1001C0008C93E2E3F0E08A8180830000A8E3B0E052
:1001D000E8E3F0E0808180688C930000000000007C
:1001E00000000000A8E3B0E0E8E3F0E080818F7752
:1001F0008C9300000F900F90CF91DF910895DF93C3
:10020000CF93CDB7DEB780E00E947C008823DCF37B
:10021000CF91DF910895DF93CF93CDB7DEB70E94E2
:10022000FF0080E06CE30E94C1000E94FF0080E0BC
:1002300066E00E94C1000E94FF0080E06FE00E9423
:10024000C1000E94FF0080E061E00E94C100CF91E8
:10025000DF910895DF93CF93CDB7DEB7E8E3F0E009
:100260001082E7E3F0E080EE8083E1E3F0E08FEFDF
:10027000808360EC74ED81E090E00E943E000E947B
:100280000B01CF91DF910895DF93CF93CDB7DEB708
:0A0290000E942A01FFCFF894FFCF6F
:00000001FF
