:100000000C942A000C943F000C943F000C943F0089
:100010000C943F000C943F000C943F000C943F0064
:100020000C943F000C943F000C943F000C943F0054
:100030000C943F000C943F000C943F000C943F0044
:100040000C943F000C943F000C943F000C943F0034
:100050000C943F0011241FBECFE5D4E0DEBFCDBF1E
:1000600010E0A0E6B0E0EEE9F0E002C005900D92ED
:10007000A836B107D9F70E9441000C944D000C94AA
:1000800000008FEF8ABB17BAE6B3F0E0E770F070BC
:0E009000E05AFF4F80818BBBF7CFF894FFCF73
:08009E00014F12064C24200F53
:00000001FF
